:020000040800F2
:1000000030090020C9010008D5260008C5200008D5
:10001000D1260008F50400080128000800000000AF
:10002000000000000000000000000000DD260008C5
:10003000F904000800000000D9260008E1260008A5
:10004000E3010008E3010008E3010008E301000800
:10005000E3010008E3010008E3010008E3010008F0
:10006000E3010008E3010008E3010008E3010008E0
:10007000E3010008E3010008E3010008E3010008D0
:10008000E3010008E3010008E3010008E3010008C0
:10009000E3010008E3010008E3010008E3010008B0
:1000A000E3010008E3010008E3010008E3010008A0
:1000B000E3010008E3010008E3010008E301000890
:1000C000E3010008E3010008E3010008E301000880
:1000D000E3010008F5270008E3010008E301000838
:1000E000E3010008E3010008E301000800F002F862
:1000F00000F041F80AA090E8000C82448344AAF181
:100100000107DA4501D100F036F8AFF2090EBAE87E
:100110000F0013F0010F18BFFB1A43F0010318473B
:10012000A02B0000C02B0000103A24BF78C878C173
:10013000FAD8520724BF30C830C144BF04680C60ED
:10014000704700000023002400250026103A28BF35
:1001500078C1FBD8520728BF30C148BF0B60704739
:10016000642900F09980002070471FB500F0E5F881
:100170001FBD10B510BD00F082F91146FFF7F5FF65
:1001800002F040FB00F0A0F903B4FFF7F2FF03BC5C
:1001900000F0AAF90B49D1F800C04A685CF8043BAA
:1001A0001068184442F8040B8C4528BFA1F1DC0C00
:1001B0008A4228BFA1F1DC02C1F800C04A6020F0E9
:1001C000004070470C01002009488047094800475B
:1001D000FEE7FEE7FEE7FEE7FEE7FEE7FEE7FEE7F7
:1001E000FEE7FEE704480549054A064B7047000054
:1001F000E5260008ED00000830030020300900204B
:1002000030050020300500200FB41CB5074B06AAAE
:100210007B4469460090059800F019F90020694672
:1002200000F028F91CBC5DF814FB0000610200001E
:100230002DE9F0410E460446002020622046E16888
:10024000884730B3252805D0D4E901219047206A9A
:10025000401CF2E7E168204600278847050018D0D7
:10026000A5F14100192802D820354FF40067324625
:10027000294620462760FFF773FF40B1012804D0CC
:10028000F61D26F007060836D8E7361DD6E72846BD
:10029000DAE7206ABDE8F0812DE9F0410646002446
:1002A00010687529314616A510D0AFF300800028DC
:1002B00002DA404213A507E031688A0701D512A58A
:1002C00002E0490704D511A5012401E0AFF3008045
:1002D00000210A2206F1240709E0B0FBF2FCB0FB82
:1002E000F2F302FB1C00303078541846491C0028F9
:1002F000F3D123462A463046BDE8F04100F048B825
:10030000000000002D0000002B0000002000000075
:100310000B4910B5A1F17C020A4CC2E93712372112
:1003200006E000EB104342F82130074B00FB03408E
:100330000B1EA1F10101F4DC10BD0120E8E7000073
:10034000AC000020E119D666CD0D010010B5431CAC
:1003500002E010F8011B71B18107FAD14FF00132B0
:1003600002C88C1A8C4314EAC211F9D0C01A0A06CA
:1003700003D0C01E10BDC01A10BD0A0401D0801EDB
:1003800010BD0902FCD0401E10BD70477047704779
:100390002DE9F0470D4699469246044600F124089F
:1003A0000168880604D5E06921F01001216000E0B1
:1003B0000120A84201DD471B00E00027A1697A194E
:1003C00002EB0900081AA0612078C00602D420467A
:1003D000AFF30080002608E0D4E901211AF80600F6
:1003E0009047206A401C761C20624E45F4DB207842
:1003F000C0060AD52046AFF3008006E0D4E901210B
:1004000030209047206A401C2062381EA7F1010767
:10041000F4DC07E0D4E9012118F805009047206AD0
:10042000401C2062281EA5F10105F3DC2046AFF335
:1004300000802078000602D50220BDE8F087012068
:10044000FBE7000001694A1C02610878704700B5AB
:100450008FB0CDE901310021059105497944CDE9FD
:10046000031011466846FFF7E3FE0FB000BD000021
:10047000E5FFFFFF0A6802F8010B0A607047754646
:1004800000F02CF8AE4605006946534620F0070000
:10049000854618B020B5FFF7A5FEBDE820404FF017
:1004A00000064FF000074FF000084FF0000BAC467D
:1004B000ACE8C009ACE8C009ACE8C009ACE8C009C8
:1004C00021F007018D46704710B50446AFF3008058
:1004D0002046BDE81040FFF757BE000000487047B7
:1004E000140100207047000001491820ABBEFEE750
:1004F00026000200FEE7000070470000014690F869
:100500002100022816D10868D1E90FC3026822F041
:100510000E020260026822F001020260012000FA6D
:1005200003F2CCF8042081F821000020002281F899
:1005300020207047042088630120002281F82020B9
:100540007047000080B590F82110022924D102687C
:10055000116821F00E0111602F211368C4F202010D
:100560008A4240F20401C4F2020123F00103136045
:1005700016DD3023C4F202039A421DD04423C4F294
:1005800002039A421CD05823C4F202039A421DD19E
:100590004FF4803322E000BF04218163012080BD3D
:1005A0000823C4F202039A420ED01C23C4F20203B1
:1005B0009A420BD1102311E04FF480730EE000BF7C
:1005C0004FF480530AE000BF012307E001F1680CFB
:1005D0004FF08073624508BF4FF480130B60012118
:1005E00080F82110426B002180F820100AB190475A
:1005F0000021084680BD0000B0B5044600F01EF999
:10060000054640F21C00C2F200000078611C18BFD1
:10061000044400BF00F012F9401BA042FAD3B0BD61
:100620002DE9F04F82B00E68002E00F0038141F2F8
:100630000042C4F20102042340F2004E904208BF7F
:1006400003234FF6FF7CC4F2010E00930024012324
:10065000C1F2100C4FF0000A4FF0000949E000BF52
:10066000012704F00C030F229A402BEA020207FA3A
:1006700003F34FEA9A051A4346F82520D1F804B04F
:1006800040F20C455FEACB22DEF8082054BF22EA94
:10069000080242EA0802C4F20105CEF808202A68DE
:1006A0005FEA8B2354BF22EA080242EA08022A606A
:1006B0005FEA8B33DEF8042054BF22EA080242EAE4
:1006C00008025FEACB33CEF80420DEF800204FF0BA
:1006D000010354BF22EA080242EA0802CEF80020D1
:1006E0000E680AF1010A36FA0AF204F1040400F075
:1006F000A18003FA0AF816EA080FF1D04E686645A1
:1007000012DC122E56D8DFE806F0350B4549555558
:1007100055555555555555555555554D510000BFD5
:10072000D1F80C9046E000BF4FF6FF72C1F22102F3
:1007300096420FDC0022C1F2110296421AD000222A
:10074000C1F21202964215D00022C1F22102964255
:1007500010D02FE00022C1F2220296420AD00022DD
:10076000C1F23102964205D00022C1F23202964215
:1007700020D100BF8A684AB1012A14BFC0F8148092
:10078000C0F810804FF0080914E000BF4FF00409D2
:1007900010E000BFCA6802F108090BE04FF0000941
:1007A00008E000BFCA6802F1040903E0CA6802F168
:1007B0000C0900BF22460646BAF1080F24BF203AB2
:1007C000043637680F25954027EA050509FA02F235
:1007D0002A433260CA79D2067FF582AF41F218030C
:1007E000C4F202031A68AEF57E7642F001021A6086
:1007F0001A6802F001020192019A2AF0030256F8E7
:1008000002B040F60002C4F20102904210D040F65D
:100810000042C4F2010290423FF422AF41F20002D2
:10082000C4F20102009F904208BF022719E700BFEF
:10083000002716E702B0BDE8F08F000040F2283034
:10084000C2F200000068704770B5B8B3044690F873
:100850003D0028B9002084F83C00204600F09AF9B9
:10086000242084F83D002068016821F00101016026
:10087000016841F400410160016821F40041016018
:1008800000F052FB48F28041C0F21E0140F6001316
:10089000D4F804E088424FF00001C0F23D0348F272
:1008A000A16C4FF0000238BF01219842C0F2010C48
:1008B00038BF0122E64538BF0A460AB1012070BDA3
:1008C0004DF68361C4F21B31A0FB01122168950C27
:1008D0004B684FF4967623F03F0343EA9243754307
:1008E00044F6D3564B60C1F262060B6AA5FB06566E
:1008F000B50923F03F03E64538BF950C6A1C1A433F
:100900000A62CA6948F2A0664CF6FF73C0F201069B
:10091000B64522EA03020BD801384FEA4E03B0FB7A
:10092000F3F001306FF31F30042898BF04201EE05D
:10093000A368013863B119230EFB03F3B0FBF3F096
:1009400001306FF31F3078B100F5804008E000BF40
:100950000EEB4E03B0FBF3F001306FF31F3028B104
:1009600000F5004003E000BF012000E0012010433B
:10097000C8610868D4E9072320F0C0001043184379
:100980000860886848F2FF3204F10C0690434CCEB0
:1009900018431043A5698860C86820F0FF00304301
:1009A0002843C860086840F001000860002020214A
:1009B000206484F83D10206384F83E0070BD000080
:1009C0002DE9F04383B01E46174689460446FFF7DB
:1009D00035FF94F83D10202920D10546206800BF3E
:1009E0008169890716D5FFF729FF411B20681A295D
:1009F000F6D381698907F3D500202021206384F88C
:100A00003D1084F83E00216C41F02001216484F8FF
:100A10003C0003E094F83C10012903D1022003B00C
:100A2000BDE8F083012184F83C100168C90703D1B7
:100A3000016841F001010160016840F2020821F4FF
:100A400000610160212184F83D10102184F83E10DE
:100A50000021216467626685618DC0F201082185ED
:100A6000A8F10211E162E16A0A9E11F5803F18BF08
:100A700001291DD1016841F48071016020464FF0C9
:100A8000011100223346009501F07EFB50B1206831
:100A90000068C00544BF4FF400702064012003B01B
:100AA000BDE8F0832069B0F5804F07D1FE2015E046
:100AB0000829DFD0216B1229DCD0DFE7062000EA0D
:100AC000D9102168F030086108F10601204632464D
:100AD0002B4601F043FC0028E0D1FF20216800EA0A
:100AE000090008612046414632462B4601F036FC9B
:100AF0000028D3D1002002902068416902918069CA
:100B00000290029806E000BF204631462A4601F0D6
:100B1000DBFA18BB208D68B3204631462A4601F027
:100B20008DFCD8B9606A2168024612F8013B0B615E
:100B30006262628D013A6285228D531E23854F6960
:100B40007F07E1D51B04DFD0437802300B61606280
:100B5000608D01386085901E2085D5E7206C0428C3
:100B60009CD12068016841F400710160012003B04C
:100B7000BDE8F0832068016841F400710160202025
:100B800084F83D00002084F83E0084F83C0003B067
:100B9000BDE8F08310B586B045F200410068C4F2AC
:100BA000000100228842049202D006B010BD00BFAE
:100BB00041F21804C4F20204206840F008002060EA
:100BC000206800F0080001900198C02002901220D7
:100BD00003900320059001F5384002A9FFF720FD9E
:100BE000606840F400106060606800F400100190DC
:100BF000019806B010BD000040F21C0040F2283100
:100C0000C2F20000C2F2000100780A6810440860D5
:100C10007047000080B542F20000C4F20200016893
:100C200041F010010160032000F08EF80F2000F069
:100C300005F800F027F8002080BD000070B540F2F4
:100C40001C06C2F2000640F224013278C2F2000112
:100C50004FF47A730968B3FBF2F20446B1FBF2F188
:100C6000084600F063FB0F2C4FF0010508D838B997
:100C70004FF0FF3021460022002500F039F8746063
:100C8000284670BD82B041F21800C4F2020001682B
:100C9000022241F001010160016801F001010191AE
:100CA0000199416841F080514160406800F08050F6
:100CB000009000980420C4F20100016862F31A61F8
:100CC000016002B070470000002848BF7047C1B201
:100CD00000F01F00012202FA00F04EF20012CEF2E4
:100CE000000242EAD10121F00301086070470000D0
:100CF00010B54EF60C5CCEF2000CDCF80030C3F3FD
:100D0000022E8EF00704042C28BF0424BEF1030336
:100D10004FF0FF3E0EFA04F438BF0023A143994080
:100D20000EFA03F39A43114300F00F0200F16043FF
:100D30000901043A03F564436244002848BF02F104
:100D40000C03197010BD00004EF60C51CEF20001DC
:100D50000A684FF6FF031A4060F30A2242F08060EF
:100D600040F0FD70086070472DE9F04381B0002825
:100D700000F0858042F20008C4F202080446D8F868
:100D800000000D4600F0070088420CD2D8F80000A1
:100D900020F007002843C8F80000D8F8000000F051
:100DA0000700A8426BD1206841F204098107C4F210
:100DB000020917D5410705D5D9F8001041F4E061C3
:100DC000C9F80010010705D5D9F8001041F46051A9
:100DD000C9F80010D9F80010A26821F0F001114301
:100DE000C9F80010C00741D1D8F8000000F0070092
:100DF000A8420CD9D8F8000020F007002843C8F812
:100E00000000D8F8000000F00700A84237D12068A1
:100E1000410707D5D9F80010E26821F4E0611143D9
:100E2000C9F80010000708D5D9F80000216920F49E
:100E3000605040EAC100C9F80000D9F8002002F073
:100E40000C00082841F20020C0F27A0050D142F68E
:100E50007643C2F38341C0F60003595CD2033BD40E
:100E600040F60010C0F23D00484341E060680228AF
:100E70000AD001282AD159F8041C890308D401207A
:100E800001B0BDE8F08300BF59F8041C8901F6D514
:100E9000D9F8001021F003010843C9F80000FFF75A
:100EA000CDFC064641F28837D9F80000616800F0B1
:100EB0000C00B0EB810F97D0FFF7C0FC801BB8424D
:100EC000F2D9032001B0BDE8F08300BF59F8041C3B
:100ED0008907D4D5DCE700BFD9F8002042F6744377
:100EE000C2F34042C0F600039A5C4843B0FBF2F004
:100EF000D9F8001042F65C42C1F30311C0F60002BB
:100F0000515C40F2240220FA01F140F22000C2F2CA
:100F100000000068C2F200021160FFF78FFE00209F
:100F200001B0BDE8F083000040F2240041F204016A
:100F3000C2F20000C4F202010068096842F66C4285
:100F4000C1F30221C0F60002515CC84070470000A6
:100F500040F2240041F20401C2F20000C4F2020196
:100F60000068096842F66C42C1F3C221C0F6000273
:100F7000515CC840704700002DE9F04182B0002864
:100F800068D00446007841F20006C007C4F20206A9
:100F900025D0706800F00C0004281BD0706800F0A9
:100FA0000C00082802D17068C00313D460680028C0
:100FB00000F06881B0F5A02F00F07C81B0F5803F93
:100FC00000F07C81306820F480303060306820F49C
:100FD000802076E13068800301D56068D0B3207846
:100FE000800718D5706810F00C0F07D0706800F0FB
:100FF0000C0008286ED17068C0036BD4306880077D
:1010000002D52069012825D13068616920F0F800F7
:1010100040EAC1003060207800071FD420784007E4
:1010200032D4E56995B1706800F00C00082840F0F2
:101030008F80012D0ED07068216A00F480328A42C0
:1010400008D1616A00F47010884203D1002002B018
:10105000BDE8F081012002B0BDE8F081A069002860
:1010600062D00020C4F242200121C0F88014FFF7B2
:10107000E5FB0546706A800700F18C80FFF7DEFB18
:10108000401B0228F6D92AE1F06910F0805808D1F7
:10109000F06940F08050F061F06900F080500090FD
:1010A000009847F20007C4F200073868C00529D449
:1010B000386840F480703860FFF7C0FB054600BF19
:1010C0003868C0051ED4FFF7B9FB401B6428F7D968
:1010D00005E100BF2069002840F20000C4F2422070
:1010E00000F0828001210160FFF7A8FB054600BFE8
:1010F000306880073FF588AFFFF7A0FB401B022850
:10110000F6D9ECE0E068002800F08080052800F0C7
:101110009780012800F09880306A20F0010030624A
:10112000306A20F0040092E00020C4F24220002146
:10113000C0F88014FFF782FB054600BF706A800785
:101140007FF56CAFFFF77AFB401B0228F6D9C6E0AB
:101150000027C4F2422700203866FFF76FFB022DFC
:1011600005460BD13068800140F1BE80FFF766FB79
:10117000401B02284FF00300F4D968E73068800173
:101180007FF564AFFFF75AFB401B02284FF00300C6
:10119000F4D95CE740F22400C2F20000006844F693
:1011A000D351C1F26201A0FB0101480A019000BFC6
:1011B00000BF0198411E002801913FF42FAF00BFEE
:1011C0000198411E002801913FF428AF00BF01980B
:1011D000411E002801913FF421AF00BF0198411E3C
:1011E00000280191E4D119E700210160FFF726FBF7
:1011F000054600BF306880077FF50DAFFFF71EFB87
:10120000401B02284FF00300F4D920E7306A20F099
:1012100001003062306A20F004003062FFF70EFBFC
:10122000054641F2883700BF306A800720D5FFF7B6
:1012300005FB401BB8424FF00300F5D907E700BF9C
:10124000306A40F004003062306A40F001003062E1
:10125000FFF7F4FA054641F2883700BF306A80078D
:1012600006D4FFF7EBFA401BB842F7D937E000BFCE
:10127000B8F1000F7FF4D5AEF06920F08050F06136
:10128000CFE600BF306820F480303060306820F452
:1012900080203060FFF7D2FA054600BF3068800337
:1012A0007FF59DAEFFF7CAFA401B64284FF003009C
:1012B000F4D9CCE6306840F480203060306840F4E7
:1012C00080303060FFF7BAFA054600BF306880030F
:1012D0003FF585AEFFF7B2FA401B6428F6D903202C
:1012E00002B0BDE8F08100BF206AB0F5803F05D1B3
:1012F0007168A26821F40031114371607168626AFB
:1013000021F4741111430843706001203866FFF71F
:1013100095FA0446306880013FF598AEFFF78EFAE3
:10132000001B02284FF00300F4D990E6411E002074
:10133000B0EB116F1CBF012070474EF21002CEF2CD
:10134000000251604EF62351CEF20001F0230B70E3
:1013500007219060116070477047000070470000DF
:10136000B0B582B0044600680168C368426901F004
:101370002F05202D03F0200506D12DB1204602B007
:10138000BDE8B04001F0B6B95FEA017C1EBF02F0D3
:10139000010E03F4907212EB0E0253D1226B012A5C
:1013A00005D111F0100218BF13F0100236D10A0651
:1013B00022D513F080021FD094F8411021293FD18B
:1013C000A168B1F5805F03D12169002900F0708226
:1013D000216A4A1C226209784160E18C01390A04C1
:1013E000E1842DD1C16821F08001C160C16841F064
:1013F0004001C16002B0B0BD490621D513F04001E3
:101400001ED0C16821F04001C1602021204684F82F
:10141000411002B0BDE8B04000F052BE0021019181
:10142000016801914168019101994069400613D416
:10143000A08DE18DE28D002A18BF884240F0BA816C
:1014400002B0B0BDCA0718BF13F4807240F0B68076
:101450004A0700F1B980BEE0E06B016849688AB2D2
:10146000002AEDD0A38D9A42EAD2E1858069202836
:1014700000F09C80206850E8030F216820F4807001
:1014800041E80302DAB1206850E8030F216820F434
:10149000807041E8030292B1206850E8030F216890
:1014A00020F4807041E803024AB1206850E8030F3D
:1014B000216820F4807041E80302002ADAD1206814
:1014C00050E8050F216820F0010041E80502DAB17B
:1014D000206850E8050F216820F0010041E805026E
:1014E00092B1206850E8050F216820F0010041E822
:1014F00005024AB1206850E8050F216820F001007C
:1015000041E80502002ADAD1206850E8050F216879
:1015100020F0400041E80502DAB1206850E8050FEC
:10152000216820F0400041E8050292B1206850E8AF
:10153000050F216820F0400041E805024AB120680B
:1015400050E8050F216820F0400041E80502002A1C
:10155000DAD1202084F8420000202063206850E87F
:10156000030F216820F0100041E80302DAB120687F
:1015700050E8030F216820F0100041E8030292B107
:10158000206850E8030F216820F0100041E80302B2
:101590004AB1206850E8030F216820F0100041E8AC
:1015A0000302002ADAD1E06BFEF7A8FF0220606395
:1015B000A08DE18D401A81B2204674E1626C42F048
:1015C000010262644A0706D5BEF1000F03D0626CC7
:1015D00042F0020262648A0706D5BEF1000F03D012
:1015E000626C42F004026264BCF1000F09D545EA66
:1015F0000E02B2FA82F2520903D1626C42F0080282
:101600006264626C002A3FF41BAF11F0200118BF26
:10161000002D03D0204601F06DF820684069616C10
:1016200000F0400001F00801401800F0B58000BF54
:10163000206850E8030F216820F4907041E803020D
:10164000BAB3206850E8030F216820F4907041E895
:10165000030272B3206850E8030F216820F49070F1
:1016600041E803022AB3206850E8030F216820F400
:10167000907041E80302002ADAD11AE0206850E8AD
:10168000050F216820F0010041E80502DAB1206869
:1016900050E8050F216820F0010041E8050292B1F1
:1016A000206850E8050F216820F0010041E805029C
:1016B0004AB1206850E8050F216820F0010041E898
:1016C0000502002ADAD1206B012824D1206850E8D5
:1016D000030F216820F0100041E80302DAB120680E
:1016E00050E8030F216820F0100041E8030292B196
:1016F000206850E8030F216820F0100041E8030241
:101700004AB1206850E8030F216820F0100041E83A
:101710000302002ADAD1202084F84200002020634E
:101720002068406940063FD5206850E8050F2168D1
:1017300020F0400041E80502DAB1206850E8050FCA
:10174000216820F0400041E8050292B1206850E88D
:10175000050F216820F0400041E805024AB12068E9
:1017600050E8050F216820F0400041E80502002AFA
:10177000DAD1E06BC0B142F2E961C0F60001416329
:10178000FEF7E0FE00283FF45BAEE06B416B02B079
:10179000BDE8B040084700BF2046FFF7DFFD00204E
:1017A000606402B0B0BD00BF204602B0BDE8B040EA
:1017B000FFF7D4BD401A216851E8031F226821F4C5
:1017C000907142E80313DBB1216851E8031F2268DE
:1017D00021F4907142E8031393B1216851E8031F8B
:1017E000226821F4907142E803134BB1216851E85B
:1017F000031F226821F4907142E80313002BDAD111
:10180000216851E8051F226821F0010142E8051313
:10181000DBB1216851E8051F226821F0010142E88F
:10182000051393B1216851E8051F226821F00101D9
:1018300042E805134BB1216851E8051F226821F0E9
:10184000010142E80513002BDAD1202184F842106F
:1018500000212163216851E8031F226821F0100153
:1018600042E80313DBB1216851E8031F226821F02D
:10187000100142E8031393B1216851E8031F226865
:1018800021F0100142E803134BB1216851E8031F16
:10189000226821F0100142E80313002BDAD1022262
:1018A00081B22046626302B0BDE8B040FFF754BD8C
:1018B000216A31F8022B6FF35F22426021628CE5CE
:1018C000002804BF0120704710B5044690F841007D
:1018D00028B9002084F84000204600F063F8242056
:1018E00084F841002068D4E90212C36823F400534D
:1018F000C360036923F440531A430261D4E904230B
:101900001143C268194341F20C639A431143C16009
:101910004169A26921F44071114343F60002C4F207
:1019200001029042416103D0FFF7FEFA02E000BFDE
:10193000FFF70EFB6268192148439100B0FBF1F0FC
:1019400048F21F51C5F2EB11A0FB01235A094FF6D3
:101950009C73C0F6FF7302FB0300322303EB0010FD
:10196000A0FB0101F02303EA5113206803EB0212EC
:10197000C1F3431111448160016921F49041016177
:10198000416921F02A014161C16841F40051C160FF
:1019900000202021606484F8411084F842106063C4
:1019A00010BD000070B586B040F60004C4F201041A
:1019B000006804F5405100268842049602D006B023
:1019C00070BD00BF41F21800C4F20200016802AD10
:1019D00041F480410160016801F480410191019965
:1019E000016841F0040101600068294600F004002C
:1019F000019001984FF400700290022003900320A0
:101A000005902046FEF70CFE4FF48060CDE90206FB
:101A1000204629460496FEF703FE252001210022D8
:101A2000FFF766F92520FFF74FF906B070BD0000FB
:101A300090F84230202B1CBF0220704700294FF045
:101A4000010318BF002A01D1184670470023036321
:101A5000816222218285C285436480F84210016937
:101A6000006819B1C16841F48071C1604169002307
:101A700041F001014161C16841F02001C160184697
:101A8000704700002DE9F04140F25024C2F20004FA
:101A90000068616B884201D0BDE8F08140F27416A5
:101AA000C2F200063078002846D00128F4D1343440
:101AB000F11C20460522FFF7BBFFF178F27930795F
:101AC00081F0AB0182F0BA0240F200081143C2F289
:101AD000000808BF012847D0821EB1FA81F1B2FA8E
:101AE00082F2490952090A40012A40F07F80C6A1CA
:101AF00020460822642300F0A7F9B079022800F0FC
:101B00009580012840F04F81D8F80800C4A10278E0
:101B100040F2EA10C2F20000C2F13C04FEF774FB8E
:101B200042F6A64106F10800C0F600012246FEF783
:101B30006BFB0420D3E000BFF078AB28ACD1F07988
:101B4000BA28A9D130790028A6D1012504F13400A2
:101B5000A1A108226423357000F076F93078757001
:101B60000128A4D098E700BFB1A120460722642332
:101B700000F06AF9FEF70EFB4AF6AB21C2F6AA2185
:101B800080FB011202EBD27101EB4101A0EB41019C
:101B9000B07901310228B17070D0012840F0038182
:101BA000A7A120460822642300F04EF90220D8F8AD
:101BB0000C1070700B78B278D8F800C0D8F8080014
:101BC0003C2B05D3D8F810503C3B0B7001232B70F5
:101BD0000578AB183B2B6BD80F787D1B012DC0F21D
:101BE0009980954240F2A2800370C7E00338B0FAB2
:101BF00080F040090840012840F0D58078A12046B7
:101C00000622642300F020F9B07902285CD0012874
:101C100040F0C980D8F8140077A1027840F2502033
:101C2000C2F20000FEF7F0FA062058E0D8F80C00E7
:101C3000D8F81020017800231F391C294FF01E0707
:101C400088BF01231D2938BF5A2713700078D8F8A0
:101C50000C103C1A40F2EA100A78C2F2000032304E
:101C60006BA1FEF7D1FA42F6A64106F12600C0F6B6
:101C700000012246FEF7C8FA052030E0032070700C
:101C80006DA120460722642300F0DEF8D8F80C107E
:101C9000B0780D78D8E90123D8F810403C2D21D335
:101CA000A5F13C070F70012727700D7820E000BFD9
:101CB0003C2B2DD1012101709CF8000001308CF8E3
:101CC00000000E2059E000BFD8F8180046A10278A5
:101CD00040F25020C2F20000FEF796FA0720707022
:101CE00061E000BF2478012C02D024B126E000BFBF
:101CF0002F181D2F22D81F787C1B012C10DB84424B
:101D000011D819D12F180F7001271F700D2314E05F
:101D1000102032E0B5F1FF3FD8BF03702EE000BFC6
:101D2000B4F1FF3F0ADC2B180B7007E024D10370DD
:101D30001F2008700C2020E00B2373700B780344E5
:101D40001E2B08D11F230B701378013313700F2241
:101D5000727009780B181F2B24BF11207070B27895
:101D600042F6A14106F14400C0F60001FEF74CFA2C
:101D7000D8F8180014E000BF0A207070B27806F19D
:101D8000440542F6A141C0F600012846FEF73CFAA0
:101D9000204629463222642300F056F8D8F8140071
:101DA000017801310170D8E9000201781078022928
:101DB00006D1022804D208207070BDE8F08100BF6F
:101DC00001293FF669AE022818BFBDE8F08109205D
:101DD0007070BDE8F08100BF0A53746172740A002C
:101DE0000A4C6F670A00000050322071756120258F
:101DF00064207475726E0000503120717561202569
:101E000064207475726E00000A436865636B0A0093
:101E1000503220706F736974696F6E3A20256400C8
:101E2000503120706F736974696F6E3A20256400B9
:101E30000A4D6F76650A00004D6F766550320000DE
:101E40004D6F766550310A002DE9F04381B00446AC
:101E500090F84100202840F0B180884600294FF0DA
:101E6000010000F0D6801646002A00F0D280002043
:101E7000606421201D4684F84100FEF7DFFCA68443
:101E8000E684A1680646B1F5805F03D12069002889
:101E900000F0988047464FF00008E18C2068002948
:101EA00000F0968005F101090BE000BF47B317F879
:101EB000011B4160E18C0139E184E18C002900F0D3
:101EC000878001680906F1D4B9F1000F0AD0EDB19D
:101ED000FEF7B4FC801BA84218D8206801680906E8
:101EE000F6D5E3E701680906E0D4016809065CBF9E
:101EF00001685FEA0161D9D401680906F2D5D5E726
:101F000038F8021B00276FF35F21D2E7206850E802
:101F1000030F216820F4D07041E80302BAB32068AF
:101F200050E8030F216820F4D07041E8030272B337
:101F3000206850E8030F216820F4D07041E80302C4
:101F40002AB3206850E8030F216820F4D07041E8DC
:101F50000302002ADAD11AE0206850E8050F216850
:101F600020F0010041E80502DAB1206850E8050FD1
:101F7000216820F0010041E8050292B1206850E894
:101F8000050F216820F0010041E805024AB12068F0
:101F900050E8050F216820F0010041E80502002A01
:101FA000DAD1202084F8410084F84200002084F82F
:101FB0004000032001B0BDE8F08300BF022001B063
:101FC000BDE8F0830027E18C206800297FF46AAF28
:101FD0000168490619D4FDB1691C0DD10168490693
:101FE00013D4016849065CBF01685FEA41610CD403
:101FF00001684906F2D508E0FEF720FC801BA842E4
:102000000AD8206800684006F6D5202084F84100F0
:10201000002001B0BDE8F083206850E8030F21687C
:1020200020F4D07041E80302002A3ED0206850E836
:10203000030F216820F4D07041E80302AAB320689E
:1020400050E8030F216820F4D07041E8030262B326
:10205000206850E8030F216820F4D07041E80302A3
:10206000002AD9D121E000BF206850E8050F21687F
:1020700020F0010041E80502002A3FF492AF2068F9
:1020800050E8050F216820F0010041E80502002A10
:102090003FF487AF206850E8050F216820F0010069
:1020A00041E80502002A3FF47CAF206850E8050FA4
:1020B000216820F0010041E80502002AD4D170E730
:1020C00070470000FEE7000070B50368044653F84F
:1020D000140F400711D40E46481C29D086BB00BF00
:1020E0001868400527D4FEF7A9FB236853F8140F9E
:1020F000400739D518684007F2D5002070BD00BFF1
:1021000018684007F9D41868400514D418684007C7
:10211000F3D4186840050ED418684007EDD4186849
:10212000400508D4186840074FF0000048BF70BD54
:1021300018684005E4D56FF480601860042014E04E
:10214000154603E053F8140F4007D6D4186840052D
:10215000F1D4FEF773FB401B2368B042F2D95869F3
:102160004007EFD4202000E020200021202221631E
:1021700084F83D2084F83E10226C10432064012036
:1021800084F83C1070BD00002DE9F0410546006860
:102190001E46144601F47F0201338FB242D0DDF8AF
:1021A0001880B2F5803F40F0878040693840C01BFE
:1021B000B0FA80F04009A04240F0C8804EB924E057
:1021C00040693840C01BB0FA80F04009A04240F09E
:1021D000BD80FEF733FBA0EB08012868B142EFD9C0
:1021E00041693940C91BB1FA81F14909A142E7D1DE
:1021F0009BE000BF40693840C01BB0FA80F0400946
:10220000A0424FF0000040F0A680FEF717FB2868C0
:1022100041693940C91BB1FA81F14909A142E9D1AB
:1022200083E000BFB2F5803F24D100BF416939404F
:10223000C91BB1FA81F14909A14240F08780416987
:102240003940C91BB1FA81F14909A14240F07E80B1
:1022500041693940C91BB1FA81F14909A14275D1DF
:1022600041693940C91BB1FA81F14909A142DDD068
:102270006CE000BF81693940C91BB1FA81F149099D
:10228000A14263D181693940C91BB1FA81F1490981
:10229000A1425BD181693940C91BB1FA81F1490979
:1022A000A14253D181693940C91BB1FA81F1490971
:1022B000A142DFD04AE000BF80693840C01BB0FABD
:1022C00080F04009A04241D146B923E080693840FE
:1022D000C01BB0FA80F04009A0423BD1FEF7AEFA35
:1022E000A0EB08012868B142F0D981693940C91BC7
:1022F000B1FA81F14909A142E8D116E0806938407C
:10230000C01BB0FA80F04009A0424FF0000018BF97
:10231000BDE8F081FEF792FA286881693940C91B4F
:10232000B1FA81F14909A142E8D1002020212863B6
:1023300085F83D1085F83E00296C41F020012964A4
:1023400085F83C000120BDE8F08100BF0020BDE819
:10235000F08100BF0020BDE8F0810000F0B581B041
:10236000044600681D4643698FB203EA0701B9427B
:1023700002D1002001B0F0BD41691646013201F4DE
:10238000806125D0002940D1CEB100BFFEF756FABA
:10239000411B2068B14203D941693940B9424BD150
:1023A00041693940B942E4D041694905EED52CE094
:1023B00041693940B942DCD04169490525D4FEF76D
:1023C0003DFA206841693940B942F1D0202024E02B
:1023D000D9B941693940B942CBD04169490514D4D2
:1023E00041693940B942C4D0416949050DD44169B8
:1023F0003940B942BDD04169490506D441693940E7
:10240000B942B6D041694905E3D5016841F400718C
:1024100001606FF48061416104200021202221636A
:1024200084F83D2084F83E10226C1043206484F828
:102430003C10012001B0F0BD2020EEE770B503682C
:10244000044653F8140F000611D40E46481C29D038
:1024500086BB00BF1868400527D4FEF7EFF9236854
:1024600053F8140F000639D518680006F2D500207D
:1024700070BD00BF18680006F9D41868400514D470
:1024800018680006F3D4186840050ED418680006D2
:10249000EDD41868400508D4186800064FF0000015
:1024A00048BF70BD18684005E4D56FF480601860BF
:1024B000042014E0154603E053F8140F0006D6D4A8
:1024C00018684005F1D4FEF7B9F9401B2368B04203
:1024D000F2D958690006EFD4202000E02020002126
:1024E0002022216384F83D2084F83E10226C1043A2
:1024F0002064012084F83C1070BD000080B582B0DB
:1025000040F60C00C1F61C00019040F2D4204FF0C0
:10251000FF3CC2F2000001AA4E210423CDF800C006
:10252000FEF74EFA0220FEF767F802B080BD000009
:10253000B0B582B043F63C0040F2D424C3F63C0070
:10254000C2F2000401904FF0FF3501AA20464E214F
:1025500004230095FEF734FA43F63C00C2F62C0043
:10256000019001AA20464E2104230095FEF728FA87
:1025700042F62C00C8F68C00019001AA20464E219C
:1025800004230095FEF71CFA40F60C00CCF6CC00B4
:10259000019001AA20464E2104230095FEF710FA6F
:1025A00040F60C00C6F66C00019001AA20464E21B0
:1025B00004230095FEF704FA40F60C00C1F61C0057
:1025C000019001AA20464E2104230095FEF7F8F958
:1025D0000220FEF711F802B0B0BD000080B584B053
:1025E000012821D000283FD101F0F000A0F17402B1
:1025F00078388DF80900080100F10C0108308DF8D9
:102600000B0040F2D4208DF808208DF80A104FF00E
:10261000FF3CC2F2000002AA4E210423CDF800C004
:10262000FEF7CEF904B080BDA1F1400020F00F010B
:1026300001F10C02083100018DF80D1000F10C01C0
:1026400008308DF80F0040F2D4208DF80C208DF862
:102650000E104FF0FF3CC2F2000003AA4E210423EB
:10266000CDF800C0FEF7ACF904B080BD2DE9F04113
:1026700082B00446007838B340F2D42500274FF0EA
:10268000FF38C2F2000501AEE05D042320F00F0127
:1026900001F10D02093100018DF8051000F10D0165
:1026A00009308DF804208DF806108DF807002846B3
:1026B0004E213246CDF80080FEF782F920460137E0
:1026C000FDF744FE8742DFD302B0BDE8F081000091
:1026D000FEE70000FEE700007047000070470000C2
:1026E000FEF78ABA70470000406A0021C185C184A4
:1026F000FEF734BE81B090F84210222921D18368C0
:102700000246B3F5805F09D152F8281F52F8183CF1
:10271000002B63D003685B680AE000BF52F8281FF3
:1027200013B90369002BF5D003685B6803F07F03DE
:102730000B70116801311160C18D01390A04C18526
:1027400002D001B0704700BF0168CA6822F02002C1
:10275000CA60CA6822F48072CA604A6922F0010223
:102760004A61202180F8421000214163026B012A56
:102770003CD10163016851E8031F026821F0100198
:1027800042E80313DBB1016851E8031F026821F03E
:10279000100142E8031393B1016851E8031F026876
:1027A00021F0100142E803134BB1016851E8031F07
:1027B000026821F0100142E80313002BDAD101680E
:1027C0000A68D20606D5002200920A68009249687B
:1027D00000910099818D01B0FEF7BEBD026852687C
:1027E0006FF35F2221F8022B8162A5E701B0FFF7AA
:1027F00049B9000040F28420C2F20000FEF7B0BDEB
:10280000FEE70000A8B0FEF705FA4FF48030002480
:1028100001251F901EA8CDE92644CDE92444CDE929
:102820002244CDE920441E95FEF7A6FB20B1EFF32C
:10283000108072B6FEE700BF0F20CDE9190519A878
:102840000021CDE91B441D94FEF78EFA20B1EFF371
:10285000108072B6FEE700BF41F21800C4F2020019
:10286000016845F2004441F020010160016840F236
:10287000502601F020011E911E990168C4F2000447
:1028800041F0040101600168C2F2000601F0040198
:102890001E911E990168002541F008010160006841
:1028A00004F5644100F008001E901E98304640F880
:1028B000341F4FF4E1310C22C0E90115C0E9035582
:1028C000C0E90525C561FEF7FBFF28B1EFF31080D5
:1028D00072B600BFFEE700BF40F2D42048F2A0610C
:1028E000C2F20000C0F201014FF48042C0E9004191
:1028F000C0E90255C0E90425C0E906550562FDF7A7
:10290000A3FF28B1EFF3108072B600BFFEE700BF4F
:10291000FFF70EFEFFF7F2FD4FF4FA70FDF76CFEC5
:1029200000200021FFF75AFEA4A0FFF79FFE4FF4FE
:102930007A70FDF761FE06F1340040F27416C2F2BF
:102940000006F11C0522FFF773F841F28830FDF70D
:1029500053FE40F2EA1442F6BB4B40F2000506F18A
:102960004407C2F2000406F10808C0F6000BC2F2E8
:1029700000050DF13209EA4606E000BFFFF776FEDA
:102980004FF47A70FDF738FE707801381028FBD8C4
:10299000DFE810F012002A004800600084001E00EA
:1029A0001E00A600B200C800D000D800E000E80079
:1029B000F60004010C0100BFFFF7A0FD002000217C
:1029C000FFF70CFE42F69840C0F60000D6E700BFC5
:1029D000FFF794FD00200021FFF700FE40F2502099
:1029E000C2F20000CAE700BF4FF47A70FDF704FEA0
:1029F000FFF784FD00200021FFF7F0FD42F686403E
:102A0000C0F60000FFF732FE01200021FFF7E6FDCF
:102A1000B27842F6A1413846C0F60001FDF7F4FB5A
:102A200014E000BF4FF47A70FDF7E6FDFFF766FD96
:102A300000200021FFF7D2FD42F68F40C0F60000D3
:102A4000FFF714FE01200021FFF7C8FD3846FFF70D
:102A50000DFE99E74FF47A70FDF7CEFDFFF74EFDBE
:102A600000200021FFF7BAFD2046FFF7FFFD4FF4DD
:102A7000FA60FDF7C1FDFFF741FD00200021FFF7DF
:102A8000ADFD42F6AE40C0F60000FFF7EFFD0120BD
:102A90000221FFF7A3FD404670E700BF4FF47A70B4
:102AA000FDF7AAFDFFF72AFD00200021FFF796FDA4
:102AB00004F13200FFF7DAFD4FF4FA60FDF79CFDF8
:102AC000FFF71CFD00200021FFF788FD5FA0FFF746
:102AD000CDFD01200221FFF781FD06F126004DE723
:102AE000FFF70CFD00200021FFF778FD42F686403D
:102AF000C0F600000AE000BFFFF700FD0020002143
:102B0000FFF76CFD42F68F40C0F60000FFF7AEFD08
:102B10004FF4FA70FDF770FD01200021FFF75EFD14
:102B200058462BE7FFF7EAFC00200021FFF756FD8F
:102B300041A023E7FFF7E2FC00200021FFF74EFD54
:102B400038A01BE7FFF7DAFC00200021FFF746FD65
:102B500030A013E7FFF7D2FC00200021FFF73EFD75
:102B600028A00BE7FFF7CAFC00200021FFF736FD85
:102B700028681FA102784846FDF746FB4846FDE657
:102B8000FFF7BCFC00200021FFF728FD686813A1B7
:102B900002785046FDF738FB5046EFE6FFF7AEFCF3
:102BA00000200021FFF71AFD09A0E7E6FFF7A6FCC9
:102BB00000200021FFF712FD02A0DFE648656C6CE3
:102BC0006F2000005032206B6F2064692064630026
:102BD0005031206B6F20646920646300256420639A
:102BE0006F6E2050322076652064696368000000B3
:102BF000256420636F6E2050312076652064696300
:102C0000680000005032206B69636B6564205031AE
:102C1000000000005031206B69636B656420503206
:102C20000000000050322063616E2774206B6963DE
:102C30006B2050310000000050312063616E27741A
:102C4000206B69636B20503200000000503220631B
:102C50006163682064696368000000000000000090
:102C6000000000000102030406070809000000003C
:102C700001020304010202030405060708090A0B06
:102C80000C0D0E0F1010506572736F6E20310050D6
:102C90006572736F6E2032004D616B6520434D4449
:102CA000004D6F76652025642062756F630050319A
:102CB000206361636820646963680057696E00007F
:102CC000E02C00080000002030000000280100086F
:102CD000102D000830000020000900004401000809
:102CE000CC020020CD0200202C0300202800002070
:102CF000D0020020CE020020CF0200200100000000
:102D0000100000000024F4001E000000000000007D
:04000005080000ED02
:00000001FF
